{
  "abi": [
    {
      "type": "constructor",
      "inputs": [
        {
          "name": "oldEngine_",
          "type": "address",
          "internalType": "address"
        },
        {
          "name": "newEngine_",
          "type": "address",
          "internalType": "address"
        },
        {
          "name": "mkrSky_",
          "type": "address",
          "internalType": "address"
        },
        {
          "name": "flash_",
          "type": "address",
          "internalType": "address"
        }
      ],
      "stateMutability": "nonpayable"
    },
    {
      "type": "function",
      "name": "flash",
      "inputs": [],
      "outputs": [
        {
          "name": "",
          "type": "address",
          "internalType": "contract FlashLike"
        }
      ],
      "stateMutability": "view"
    },
    {
      "type": "function",
      "name": "migrate",
      "inputs": [
        {
          "name": "oldOwner",
          "type": "address",
          "internalType": "address"
        },
        {
          "name": "oldIndex",
          "type": "uint256",
          "internalType": "uint256"
        },
        {
          "name": "newOwner",
          "type": "address",
          "internalType": "address"
        },
        {
          "name": "newIndex",
          "type": "uint256",
          "internalType": "uint256"
        },
        {
          "name": "ref",
          "type": "uint16",
          "internalType": "uint16"
        }
      ],
      "outputs": [],
      "stateMutability": "nonpayable"
    },
    {
      "type": "function",
      "name": "mkrSky",
      "inputs": [],
      "outputs": [
        {
          "name": "",
          "type": "address",
          "internalType": "contract MkrSkyLike"
        }
      ],
      "stateMutability": "view"
    },
    {
      "type": "function",
      "name": "mkrSkyRate",
      "inputs": [],
      "outputs": [
        {
          "name": "",
          "type": "uint256",
          "internalType": "uint256"
        }
      ],
      "stateMutability": "view"
    },
    {
      "type": "function",
      "name": "newEngine",
      "inputs": [],
      "outputs": [
        {
          "name": "",
          "type": "address",
          "internalType": "contract LockstakeEngineLike"
        }
      ],
      "stateMutability": "view"
    },
    {
      "type": "function",
      "name": "oldEngine",
      "inputs": [],
      "outputs": [
        {
          "name": "",
          "type": "address",
          "internalType": "contract LockstakeEngineLike"
        }
      ],
      "stateMutability": "view"
    },
    {
      "type": "function",
      "name": "oldIlk",
      "inputs": [],
      "outputs": [
        {
          "name": "",
          "type": "bytes32",
          "internalType": "bytes32"
        }
      ],
      "stateMutability": "view"
    },
    {
      "type": "function",
      "name": "onVatDaiFlashLoan",
      "inputs": [
        {
          "name": "initiator",
          "type": "address",
          "internalType": "address"
        },
        {
          "name": "radAmt",
          "type": "uint256",
          "internalType": "uint256"
        },
        {
          "name": "",
          "type": "uint256",
          "internalType": "uint256"
        },
        {
          "name": "data",
          "type": "bytes",
          "internalType": "bytes"
        }
      ],
      "outputs": [
        {
          "name": "",
          "type": "bytes32",
          "internalType": "bytes32"
        }
      ],
      "stateMutability": "nonpayable"
    },
    {
      "type": "function",
      "name": "usdsJoin",
      "inputs": [],
      "outputs": [
        {
          "name": "",
          "type": "address",
          "internalType": "contract UsdsJoinLike"
        }
      ],
      "stateMutability": "view"
    },
    {
      "type": "function",
      "name": "vat",
      "inputs": [],
      "outputs": [
        {
          "name": "",
          "type": "address",
          "internalType": "contract VatLike"
        }
      ],
      "stateMutability": "view"
    },
    {
      "type": "event",
      "name": "Migrate",
      "inputs": [
        {
          "name": "oldOwner",
          "type": "address",
          "indexed": true,
          "internalType": "address"
        },
        {
          "name": "oldIndex",
          "type": "uint256",
          "indexed": true,
          "internalType": "uint256"
        },
        {
          "name": "newOwner",
          "type": "address",
          "indexed": true,
          "internalType": "address"
        },
        {
          "name": "newIndex",
          "type": "uint256",
          "indexed": true,
          "internalType": "uint256"
        },
        {
          "name": "ink",
          "type": "uint256",
          "indexed": false,
          "internalType": "uint256"
        },
        {
          "name": "debt",
          "type": "uint256",
          "indexed": false,
          "internalType": "uint256"
        }
      ],
      "anonymous": true
    }
  ],
  "bytecode": {
    "object": "0x61018060405234801562000011575f80fd5b506040516200184338038062001843833981016040819052620000349162000564565b6001600160a01b03808516608081905284821660a05283821660c05290821660e052604080516336569e7760e01b815290516336569e77916004808201926020929091908290030181865afa15801562000090573d5f803e3d5ffd5b505050506040513d601f19601f82011682018060405250810190620000b69190620005c9565b6001600160a01b0316610100816001600160a01b0316815250506080516001600160a01b031663fa1e2e866040518163ffffffff1660e01b8152600401602060405180830381865afa1580156200010f573d5f803e3d5ffd5b505050506040513d601f19601f82011682018060405250810190620001359190620005c9565b6001600160a01b0316610120816001600160a01b0316815250506080516001600160a01b031663c5ce281e6040518163ffffffff1660e01b8152600401602060405180830381865afa1580156200018e573d5f803e3d5ffd5b505050506040513d601f19601f82011682018060405250810190620001b49190620005ee565b610140818152505060c0516001600160a01b0316632c4e722e6040518163ffffffff1660e01b8152600401602060405180830381865afa158015620001fb573d5f803e3d5ffd5b505050506040513d601f19601f82011682018060405250810190620002219190620005ee565b61016081815250505f610120516001600160a01b0316634cf282fb6040518163ffffffff1660e01b8152600401602060405180830381865afa1580156200026a573d5f803e3d5ffd5b505050506040513d601f19601f82011682018060405250810190620002909190620005c9565b90506080516001600160a01b0316637e992cb86040518163ffffffff1660e01b8152600401602060405180830381865afa158015620002d1573d5f803e3d5ffd5b505050506040513d601f19601f82011682018060405250810190620002f79190620005c9565b60405163095ea7b360e01b81526001600160a01b0385811660048301525f196024830152919091169063095ea7b3906044015f604051808303815f87803b15801562000341575f80fd5b505af115801562000354573d5f803e3d5ffd5b505050506080516001600160a01b031663692318046040518163ffffffff1660e01b8152600401602060405180830381865afa15801562000397573d5f803e3d5ffd5b505050506040513d601f19601f82011682018060405250810190620003bd9190620005c9565b60405163095ea7b360e01b81526001600160a01b0386811660048301525f196024830152919091169063095ea7b3906044015f604051808303815f87803b15801562000407575f80fd5b505af11580156200041a573d5f803e3d5ffd5b505060405163095ea7b360e01b81526001600160a01b0388811660048301525f1960248301528416925063095ea7b391506044015f604051808303815f87803b15801562000466575f80fd5b505af115801562000479573d5f803e3d5ffd5b50506101205160405163095ea7b360e01b81526001600160a01b0391821660048201525f196024820152908416925063095ea7b391506044015f604051808303815f87803b158015620004ca575f80fd5b505af1158015620004dd573d5f803e3d5ffd5b505061010051610120516040516328ec8bf160e21b81526001600160a01b0391821660048201529116925063a3b22fc491506024015f604051808303815f87803b1580156200052a575f80fd5b505af11580156200053d573d5f803e3d5ffd5b50505050505050505062000606565b6001600160a01b038116811462000561575f80fd5b50565b5f805f806080858703121562000578575f80fd5b845162000585816200054c565b602086015190945062000598816200054c565b6040860151909350620005ab816200054c565b6060860151909250620005be816200054c565b939692955090935050565b5f60208284031215620005da575f80fd5b8151620005e7816200054c565b9392505050565b5f60208284031215620005ff575f80fd5b5051919050565b60805160a05160c05160e05161010051610120516101405161016051611149620006fa5f395f81816101930152818161051b0152610b6b01525f81816101570152818161098b0152610c1401525f81816102080152818161031a015261067301525f818161010f015281816109c80152610c3c01525f81816101ba01528181610236015281816106440152610d2a01525f818160a4015281816104870152610ad701525f818160e8015281816104ea015281816105c5015281816108200152610b3a01525f81816101e101528181610395015281816104030152818161072b015281816109110152610a5501526111495ff3fe608060405234801561000f575f80fd5b506004361061009b575f3560e01c80635ea8d4f3116100635780635ea8d4f31461017957806381c44fcc1461018e578063d336c82d146101b5578063e0d680a6146101dc578063fa1e2e8614610203575f80fd5b806315cd07b61461009f578063339f7f53146100e357806336569e771461010a57806342bf04b6146101315780634988dbd714610152575b5f80fd5b6100c67f000000000000000000000000000000000000000000000000000000000000000081565b6040516001600160a01b0390911681526020015b60405180910390f35b6100c67f000000000000000000000000000000000000000000000000000000000000000081565b6100c67f000000000000000000000000000000000000000000000000000000000000000081565b61014461013f366004610e39565b61022a565b6040519081526020016100da565b6101447f000000000000000000000000000000000000000000000000000000000000000081565b61018c610187366004610edd565b6106ff565b005b6101447f000000000000000000000000000000000000000000000000000000000000000081565b6100c67f000000000000000000000000000000000000000000000000000000000000000081565b6100c67f000000000000000000000000000000000000000000000000000000000000000081565b6100c67f000000000000000000000000000000000000000000000000000000000000000081565b5f336001600160a01b037f00000000000000000000000000000000000000000000000000000000000000001614801561026b57506001600160a01b03861630145b6102bc5760405162461bcd60e51b815260206004820152601e60248201527f4c6f636b7374616b654d69677261746f722f77726f6e672d6f726967696e000060448201526064015b60405180910390fd5b5f6102d36b033b2e3c9fd0803ce800000087610f48565b90505f80808080806102e7898b018b610f67565b60405163ef693bed60e01b8152306004820152602481018e9052959b509399509197509550935091506001600160a01b037f0000000000000000000000000000000000000000000000000000000000000000169063ef693bed906044015f604051808303815f87803b15801561035b575f80fd5b505af115801561036d573d5f803e3d5ffd5b50506040516336eda2b360e11b81526001600160a01b038981166004830152602482018990527f0000000000000000000000000000000000000000000000000000000000000000169250636ddb456691506044015f604051808303815f87803b1580156103d8575f80fd5b505af11580156103ea573d5f803e3d5ffd5b5050604051631c6eb67b60e01b81526001600160a01b037f0000000000000000000000000000000000000000000000000000000000000000169250631c6eb67b9150610440908990899030908890600401610fc6565b5f604051808303815f87803b158015610457575f80fd5b505af1158015610469573d5f803e3d5ffd5b50506040516355c4b02d60e11b8152306004820152602481018590527f00000000000000000000000000000000000000000000000000000000000000006001600160a01b0316925063ab89605a91506044015f604051808303815f87803b1580156104d2575f80fd5b505af11580156104e4573d5f803e3d5ffd5b505050507f00000000000000000000000000000000000000000000000000000000000000006001600160a01b0316636c3dead485857f0000000000000000000000000000000000000000000000000000000000000000866105459190610ff0565b6040516001600160e01b031960e086901b1681526001600160a01b0390931660048401526024830191909152604482015261ffff841660648201526084015f604051808303815f87803b15801561059a575f80fd5b505af11580156105ac573d5f803e3d5ffd5b50506040516307abdf2560e41b81526001600160a01b037f0000000000000000000000000000000000000000000000000000000000000000169250637abdf2509150610602908790879030908d90600401610fc6565b5f604051808303815f87803b158015610619575f80fd5b505af115801561062b573d5f803e3d5ffd5b5050604051633b4da69f60e01b81526001600160a01b037f000000000000000000000000000000000000000000000000000000000000000081166004830152602482018b90527f0000000000000000000000000000000000000000000000000000000000000000169250633b4da69f91506044015f604051808303815f87803b1580156106b6575f80fd5b505af11580156106c8573d5f803e3d5ffd5b505050507f0cceaa4ec34688ca5ae62e4ade215985d2d08dffd7fdb3eb79768a5dc372e8b197505050505050505095945050505050565b60405163631c84a560e01b81526001600160a01b038681166004830152602482018690523360448301527f0000000000000000000000000000000000000000000000000000000000000000169063631c84a590606401602060405180830381865afa158015610770573d5f803e3d5ffd5b505050506040513d601f19601f820116820180604052508101906107949190611019565b6107f45760405162461bcd60e51b815260206004820152602b60248201527f4c6f636b7374616b654d69677261746f722f73656e6465722d6e6f742d61757460448201526a3432b216b7b63216bab93760a91b60648201526084016102b3565b60405163631c84a560e01b81526001600160a01b038481166004830152602482018490523360448301527f0000000000000000000000000000000000000000000000000000000000000000169063631c84a590606401602060405180830381865afa158015610865573d5f803e3d5ffd5b505050506040513d601f19601f820116820180604052508101906108899190611019565b6108e95760405162461bcd60e51b815260206004820152602b60248201527f4c6f636b7374616b654d69677261746f722f73656e6465722d6e6f742d61757460448201526a3432b216b732bb96bab93760a91b60648201526084016102b3565b604051636cf830c960e11b81526001600160a01b038681166004830152602482018690525f917f00000000000000000000000000000000000000000000000000000000000000009091169063d9f0619290604401602060405180830381865afa158015610958573d5f803e3d5ffd5b505050506040513d601f19601f8201168201806040525081019061097c9190611038565b6040516309092f9760e21b81527f000000000000000000000000000000000000000000000000000000000000000060048201526001600160a01b0382811660248301529192505f9182917f000000000000000000000000000000000000000000000000000000000000000090911690632424be5c906044016040805180830381865afa158015610a0e573d5f803e3d5ffd5b505050506040513d601f19601f82011682018060405250810190610a329190611053565b915091505f815f03610c0557604051631c6eb67b60e01b81526001600160a01b037f00000000000000000000000000000000000000000000000000000000000000001690631c6eb67b90610a90908c908c9030908990600401610fc6565b5f604051808303815f87803b158015610aa7575f80fd5b505af1158015610ab9573d5f803e3d5ffd5b50506040516355c4b02d60e11b8152306004820152602481018690527f00000000000000000000000000000000000000000000000000000000000000006001600160a01b0316925063ab89605a91506044015f604051808303815f87803b158015610b22575f80fd5b505af1158015610b34573d5f803e3d5ffd5b505050507f00000000000000000000000000000000000000000000000000000000000000006001600160a01b0316636c3dead488887f000000000000000000000000000000000000000000000000000000000000000087610b959190610ff0565b6040516001600160e01b031960e086901b1681526001600160a01b0390931660048401526024830191909152604482015261ffff881660648201526084015f604051808303815f87803b158015610bea575f80fd5b505af1158015610bfc573d5f803e3d5ffd5b50505050610db4565b604051636cb1c69b60e11b81527f000000000000000000000000000000000000000000000000000000000000000060048201525f907f00000000000000000000000000000000000000000000000000000000000000006001600160a01b03169063d9638d369060240160a060405180830381865afa158015610c89573d5f803e3d5ffd5b505050506040513d601f19601f82011682018060405250810190610cad9190611075565b5050509150506b033b2e3c9fd0803ce8000000610ce18285610ccf9190610ff0565b6b033b2e3c9fd0803ce8000000610df6565b610ceb9190610ff0565b604080516001600160a01b038d811660208301529181018c90528a82166060820152608081018a905260a0810187905261ffff891660c08201529193507f00000000000000000000000000000000000000000000000000000000000000001690633f03653f903090859060e0016040516020818303038152906040526040518463ffffffff1660e01b8152600401610d85939291906110b1565b5f604051808303815f87803b158015610d9c575f80fd5b505af1158015610dae573d5f803e3d5ffd5b50505050505b85876001600160a01b0316898b6001600160a01b03168685604051610de3929190918252602082015260400190565b60405180910390a4505050505050505050565b5f825f03610e04575f610e1b565b816001840381610e1657610e16610f34565b046001015b9392505050565b6001600160a01b0381168114610e36575f80fd5b50565b5f805f805f60808688031215610e4d575f80fd5b8535610e5881610e22565b94506020860135935060408601359250606086013567ffffffffffffffff80821115610e82575f80fd5b818801915088601f830112610e95575f80fd5b813581811115610ea3575f80fd5b896020828501011115610eb4575f80fd5b9699959850939650602001949392505050565b803561ffff81168114610ed8575f80fd5b919050565b5f805f805f60a08688031215610ef1575f80fd5b8535610efc81610e22565b9450602086013593506040860135610f1381610e22565b925060608601359150610f2860808701610ec7565b90509295509295909350565b634e487b7160e01b5f52601260045260245ffd5b5f82610f6257634e487b7160e01b5f52601260045260245ffd5b500490565b5f805f805f8060c08789031215610f7c575f80fd5b8635610f8781610e22565b9550602087013594506040870135610f9e81610e22565b93506060870135925060808701359150610fba60a08801610ec7565b90509295509295509295565b6001600160a01b039485168152602081019390935292166040820152606081019190915260800190565b808202811582820484141761101357634e487b7160e01b5f52601160045260245ffd5b92915050565b5f60208284031215611029575f80fd5b81518015158114610e1b575f80fd5b5f60208284031215611048575f80fd5b8151610e1b81610e22565b5f8060408385031215611064575f80fd5b505080516020909101519092909150565b5f805f805f60a08688031215611089575f80fd5b5050835160208501516040860151606087015160809097015192989197509594509092509050565b60018060a01b03841681525f602084818401526060604084015283518060608501525f5b818110156110f1578581018301518582016080015282016110d5565b505f608082860101526080601f19601f8301168501019250505094935050505056fea26469706673582212203b150045e0694a249b0f70d3015e447fd8abecda2451259b7ab5fe28ee2a73d564736f6c63430008150033",
    "linkReferences": {}
  },
  "methodIdentifiers": {
    "flash()": "d336c82d",
    "migrate(address,uint256,address,uint256,uint16)": "5ea8d4f3",
    "mkrSky()": "15cd07b6",
    "mkrSkyRate()": "81c44fcc",
    "newEngine()": "339f7f53",
    "oldEngine()": "e0d680a6",
    "oldIlk()": "4988dbd7",
    "onVatDaiFlashLoan(address,uint256,uint256,bytes)": "42bf04b6",
    "usdsJoin()": "fa1e2e86",
    "vat()": "36569e77"
  },
  "id": 95
}